:100000000C942A000C94D6000C943C000C943C00F8
:100010000C943C000C943C000C943C000C943C0070
:100020000C943C000C943C000C943C000C943C0060
:100030000C943C000C943C000C943C000C943C0050
:100040000C943C000C943C000C943C000C943C0040
:100050000C943C0011241FBECFE5D8E0DEBFCDBF1D
:1000600020E0A0E6B0E001C01D92A236B207E1F7A1
:100070000E942F010C9444020C94000060E081E483
:100080000E94230161E081E40E94230162E081E497
:100090000E94230160E082E40E94230161E082E487
:1000A0000E94230162E082E40E94230162E084E472
:1000B0000E941F010E9426028091600090916100C1
:1000C0000097E1F460E081E40E94270162E082E4AD
:1000D0000E9427010E942E0260E081E40E942B0111
:1000E00062E082E40E942B018091600090916100A7
:1000F00001969093610080936000DECF813091057E
:10010000E1F461E081E40E94270161E082E40E9461
:1001100027010E942E0261E081E40E942B0161E030
:1001200082E40E942B018091600090916100019611
:100130009093610080936000BFCF82309105E1F41D
:1001400062E081E40E94270160E082E40E942701CE
:100150000E942E0262E081E40E942B0160E082E4B2
:100160000E942B0180916000909161000196909314
:10017000610080936000A0CF039709F09DCF61E0FC
:1001800081E40E94270161E082E40E9427010E942D
:100190002E0261E081E40E942B0161E082E40E9472
:1001A0002B01109261001092600086CF1F920F9277
:1001B0000FB60F9211242F933F934F935F936F933A
:1001C0007F938F939F93AF93BF93EF93FF93809110
:1001D0006000909161000197029700F560E081E472
:1001E0000E942B0161E081E40E942B0162E081E426
:1001F0000E942B0160E082E40E942B0161E082E416
:100200000E942B0162E082E40E942B0183E090E0D7
:1002100090936100809360000E943E00FF91EF91F7
:10022000BF91AF919F918F917F916F915F914F910E
:100230003F912F910F900FBE0F901F90189540E0A7
:100240000E943201089541E00E943201089541E088
:100250000E94AC01089540E00E94AC0108950E9404
:100260003E00FDCF823431F118F4813439F0089525
:100270008334E1F1843409F454C0089541110CC071
:100280002AB381E090E002C0880F991F6A95E2F7D7
:10029000809582238ABB0895413009F05CC02AB35F
:1002A00081E090E002C0880F991F6A95E2F7822BE7
:1002B0008ABB089541110CC027B381E090E002C0D1
:1002C000880F991F6A95E2F78095822387BB08956E
:1002D000413009F040C027B381E090E002C0880FB0
:1002E000991F6A95E2F7822B87BB089541110CC0D4
:1002F00024B381E090E002C0880F991F6A95E2F76D
:100300008095822384BB0895413029F524B381E090
:1003100090E002C0880F991F6A95E2F7822B84BB98
:10032000089541110CC021B381E090E002C0880F14
:10033000991F6A95E2F78095822381BB0895413029
:1003400051F421B381E090E002C0880F991F6A95B3
:10035000E2F7822B81BB0895823431F118F48134A5
:1003600039F008958334E1F1843409F454C00895D8
:1003700041110CC02BB381E090E002C0880F991F9F
:100380006A95E2F7809582238BBB0895413009F08E
:100390005CC02BB381E090E002C0880F991F6A9582
:1003A000E2F7822B8BBB089541110CC028B381E08A
:1003B00090E002C0880F991F6A95E2F7809582232A
:1003C00088BB0895413009F040C028B381E090E037
:1003D00002C0880F991F6A95E2F7822B88BB0895A7
:1003E00041110CC025B381E090E002C0880F991F35
:1003F0006A95E2F78095822385BB0895413029F5FF
:1004000025B381E090E002C0880F991F6A95E2F75A
:10041000822B85BB089541110CC022B381E090E08E
:1004200002C0880F991F6A95E2F78095822382BBEC
:100430000895413051F422B381E090E002C0880F6A
:10044000991F6A95E2F7822B82BB0895789485B74D
:10045000826085BF8BB780648BBF089583B785604A
:1004600083BF85EF82BF20E030E009C008B600FE00
:10047000FDCF88B7816088BF2F5F3F4F12BE243108
:0C0480003105A4F313BE0895F894FFCFDB
:00000001FF
