S02300006F6E44656D616E64547261666669634C696768747353797374656D2E737265632C
S11300000C942A000C94B8000C943C000C943C0012
S11300100C943C000C943C000C943C000C943C006C
S11300200C943C000C943C000C943C000C943C005C
S11300300C943C000C943C000C943C000C943C004C
S11300400C943C000C943C000C943C000C943C003C
S11300500C943C0011241FBECFE5D8E0DEBFCDBF19
S113006020E0A0E6B0E001C01D92A236B207E1F79D
S11300700E944A000C94D6010C94000041E00E94B6
S1130080E200089541E00E945C01089540E00E946E
S11300905C01089560E081E40E943E0061E081E437
S11300A00E943E0062E081E40E943E0060E082E43F
S11300B00E943E0061E082E40E943E0062E082E42D
S11300C00E943E00789485B7836085BF8BB78064B7
S11300D08BBF8091600090916100892BD1F761E022
S11300E082E40E94460061E081E40E94460060E0F0
S11300F081E40E94420062E082E40E9442000E9485
S1130100CC0060E081E40E94460062E082E40E9448
S1130110460061E081E40E94420061E082E40E94C2
S113012042000E94CC0061E081E40E94460061E04C
S113013082E40E94460062E081E40E94420060E0A2
S113014082E40E9442000E94CC0062E081E40E94AA
S1130150460060E082E40E94460061E081E40E947F
S1130160420061E082E40E9442000E94CC00B1CFD0
S11301701F920F920FB60F9211248F939F9381E0D9
S113018090E090936100809360009F918F910F9015
S11301900FBE0F901F90189583B7856083BF85EFBE
S11301A082BF20E030E009C008B600FEFDCF88B76A
S11301B0816088BF2F5F3F4F12BE24313105A4F305
S11301C013BE0895823431F118F4813439F008955E
S11301D08334E1F1843409F454C0089541110CC00E
S11301E02AB381E090E002C0880F991F6A95E2F774
S11301F0809582238ABB0895413009F05CC02AB3FC
S113020081E090E002C0880F991F6A95E2F7822B83
S11302108ABB089541110CC027B381E090E002C06D
S1130220880F991F6A95E2F78095822387BB08950A
S1130230413009F040C027B381E090E002C0880F4C
S1130240991F6A95E2F7822B87BB089541110CC070
S113025024B381E090E002C0880F991F6A95E2F709
S11302608095822384BB0895413029F524B381E02D
S113027090E002C0880F991F6A95E2F7822B84BB35
S1130280089541110CC021B381E090E002C0880FB1
S1130290991F6A95E2F78095822381BB08954130C6
S11302A051F421B381E090E002C0880F991F6A9550
S11302B0E2F7822B81BB0895823431F118F4813442
S11302C039F008958334E1F1843409F454C0089575
S11302D041110CC02BB381E090E002C0880F991F3C
S11302E06A95E2F7809582238BBB0895413009F02B
S11302F05CC02BB381E090E002C0880F991F6A951F
S1130300E2F7822B8BBB089541110CC028B381E026
S113031090E002C0880F991F6A95E2F780958223C6
S113032088BB0895413009F040C028B381E090E0D3
S113033002C0880F991F6A95E2F7822B88BB089543
S113034041110CC025B381E090E002C0880F991FD1
S11303506A95E2F78095822385BB0895413029F59B
S113036025B381E090E002C0880F991F6A95E2F7F7
S1130370822B85BB089541110CC022B381E090E02B
S113038002C0880F991F6A95E2F78095822382BB89
S11303900895413051F422B381E090E002C0880F07
S11303A0991F6A95E2F7822B82BB0895F894FFCFD8
S9030000FC
