:100000000C942A000C94BE000C943C000C943C0010
:100010000C943C000C943C000C943C000C943C0070
:100020000C943C000C943C000C943C000C943C0060
:100030000C943C000C943C000C943C000C943C0050
:100040000C943C000C943C000C943C000C943C0040
:100050000C943C0011241FBECFE5D8E0DEBFCDBF1D
:1000600020E0A0E6B0E001C01D92A236B207E1F7A1
:100070000E9464010C94AC020C94000060E081E4E6
:100080000E940E0161E081E40E940E0162E081E4C1
:100090000E940E0160E082E40E940E0161E082E4B1
:1000A0000E940E0162E082E40E940E0162E084E49C
:1000B0000E9408010E94810280916000909161007D
:1000C0000097E1F462E081E40E94140160E082E4C0
:1000D0000E9414010E94890262E081E40E941A01D8
:1000E00060E082E40E941A018091600090916100BA
:1000F00001969093610080936000DECF813091057E
:1001000081F421E042E461E081E40E9420018091D9
:10011000600090916100019690936100809360006F
:10012000CBCF82309105E1F460E081E40E941401BC
:1001300062E082E40E9414010E94890260E081E48E
:100140000E941A0162E082E40E941A01809160001C
:100150009091610001969093610080936000ACCF14
:10016000039709F0A9CF21E042E461E081E40E9415
:10017000200110926100109260009ECF1F920F929A
:100180000FB60F9211242F933F934F935F936F936A
:100190007F938F939F93AF93BF93EF93FF93809140
:1001A000600090916100009711F0039701F560E005
:1001B00081E40E941A0161E081E40E941A0162E078
:1001C00081E40E941A0160E082E40E941A0161E069
:1001D00082E40E941A0162E082E40E941A0181E036
:1001E00090E090936100809360000E943E00FF9138
:1001F000EF91BF91AF919F918F917F916F915F919F
:100200004F913F912F910F900FBE0F901F90189517
:1002100040E00E946701811181E0089541E00E9461
:100220006701811181E0089541E00E94F40181118C
:1002300082E0089540E00E94F401811183E0089576
:10024000EF92FF920F931F93CF93DF93C82FD62F78
:10025000142F022F40E00E94F40181112DC040E0D4
:10026000602F812F0E94F4018823F1F084E025C0E3
:1002700041E06D2F8C2F0E94F40141E0602F812F0F
:100280000E94F4010E949F0240E06D2F8C2F0E947B
:10029000F40140E0602F812F0E94F4010E949F0230
:1002A0008FEFE81AF80A02C0E12CF12C8AE0E81678
:1002B000F104F4F280E001C084E0DF91CF911F915E
:1002C0000F91FF90EF9008950E943E00FDCF823481
:1002D00049F118F4813441F07DC0833409F440C001
:1002E000843409F45AC076C041110DC02AB381E0AC
:1002F00090E002C0880F991F6A95E2F780958223EB
:100300008ABB80E00895413009F066C02AB381E0DD
:1003100090E002C0880F991F6A95E2F7822B8ABB92
:1003200080E0089541110DC027B381E090E002C044
:10033000880F991F6A95E2F78095822387BB80E03A
:100340000895413009F04AC027B381E090E002C02F
:10035000880F991F6A95E2F7822B87BB80E008958A
:1003600041110DC024B381E090E002C0880F991FB5
:100370006A95E2F78095822384BB80E0089541303E
:1003800079F524B381E090E002C0880F991F6A9547
:10039000E2F7822B84BB80E0089541110DC021B3A8
:1003A00081E090E002C0880F991F6A95E2F780957E
:1003B000822381BB80E008954130A1F421B381E024
:1003C00090E002C0880F991F6A95E2F7822B81BBEB
:1003D00080E0089581E0089581E0089581E0089526
:1003E00081E0089581E00895823449F118F4813460
:1003F00041F07DC0833409F440C0843409F45AC00C
:1004000076C041110DC02BB381E090E002C0880F8F
:10041000991F6A95E2F7809582238BBB80E008954F
:10042000413009F066C02BB381E090E002C0880F34
:10043000991F6A95E2F7822B8BBB80E008954111EA
:100440000DC028B381E090E002C0880F991F6A9523
:10045000E2F78095822388BB80E00895413009F05F
:100460004AC028B381E090E002C0880F991F6A95C6
:10047000E2F7822B88BB80E0089541110DC025B3BF
:1004800081E090E002C0880F991F6A95E2F780959D
:10049000822385BB80E00895413079F525B381E062
:1004A00090E002C0880F991F6A95E2F7822B85BB06
:1004B00080E0089541110DC022B381E090E002C0B8
:1004C000880F991F6A95E2F78095822382BB80E0AE
:1004D00008954130A1F422B381E090E002C0880F7A
:1004E000991F6A95E2F7822B82BB80E0089582E033
:1004F000089582E0089582E0089582E0089582E000
:100500000895789485B7826085BF8BB780648BBF70
:10051000089583B7856083BF85EF82BF20E030E018
:1005200009C008B600FEFDCF88B7816088BF2F5F85
:100530003F4F12BE24313105A4F313BE089583B793
:10054000856083BF8BE082BF08B600FEFDCF88B711
:0C055000816088BF13BE0895F894FFCFAF
:00000001FF
