:100000000C942A000C94E1000C943C000C943C00ED
:100010000C943C000C943C000C943C000C943C0070
:100020000C943C000C943C000C943C000C943C0060
:100030000C943C000C943C000C943C000C943C0050
:100040000C943C000C943C000C943C000C943C0040
:100050000C943C0011241FBECFE5D8E0DEBFCDBF1D
:1000600020E0A0E6B0E001C01D92A436B207E1F79F
:100070000E9441010C9456020C94000060E081E45F
:100080000E94350161E081E40E94350162E081E473
:100090000E94350160E082E40E94350161E082E463
:1000A0000E94350162E082E40E94350162E084E44E
:1000B0000E9431010E943802809162009091630099
:1000C0000097E1F460E081E40E94390162E082E49B
:1000D0000E9439010E94400260E081E40E943D01DB
:1000E00062E082E40E943D01809162009091630091
:1000F00001969093630080936200DECF813091057A
:1001000039F58091600090916100019729F478940D
:10011000109261001092600061E081E40E94390158
:1001200061E082E40E9439010E94400261E081E4C2
:100130000E943D0161E082E40E943D0180916200E5
:100140009091630001969093630080936200B4CF16
:1001500082309105E1F462E081E40E94390160E0BF
:1001600082E40E9439010E94400262E081E40E9420
:100170003D0160E082E40E943D0180916200909127
:1001800063000196909363008093620095CF03977C
:1001900009F092CF61E081E40E94390161E082E4DC
:1001A0000E9439010E94400261E081E40E943D0109
:1001B00061E082E40E943D011092630010926200AF
:1001C0007BCF1F920F920FB60F9211242F933F9364
:1001D0004F935F936F937F938F939F93AF93BF934F
:1001E000EF93FF93809162009091630001970297D3
:1001F00038F560E081E40E943D0161E081E40E9405
:100200003D0162E081E40E943D0160E082E40E94E1
:100210003D0161E082E40E943D0162E082E40E94CF
:100220003D0183E090E09093630080936200F89436
:1002300081E090E090936100809360000E94410112
:10024000FF91EF91BF91AF919F918F917F916F91AE
:100250005F914F913F912F910F900FBE0F901F9084
:10026000189540E00E944401089541E00E94440135
:10027000089541E00E94BE01089540E00E94BE0141
:1002800008950E943E00FDCF823431F118F481348C
:1002900039F008958334E1F1843409F454C00895A9
:1002A00041110CC02AB381E090E002C0880F991F71
:1002B0006A95E2F7809582238ABB0895413009F060
:1002C0005CC02AB381E090E002C0880F991F6A9554
:1002D000E2F7822B8ABB089541110CC027B381E05D
:1002E00090E002C0880F991F6A95E2F780958223FB
:1002F00087BB0895413009F040C027B381E090E00A
:1003000002C0880F991F6A95E2F7822B87BB089578
:1003100041110CC024B381E090E002C0880F991F06
:100320006A95E2F78095822384BB0895413029F5D0
:1003300024B381E090E002C0880F991F6A95E2F72C
:10034000822B84BB089541110CC021B381E090E061
:1003500002C0880F991F6A95E2F78095822381BBBE
:100360000895413051F421B381E090E002C0880F3C
:10037000991F6A95E2F7822B81BB0895823431F18F
:1003800018F4813439F008958334E1F1843409F4A8
:1003900054C0089541110CC02BB381E090E002C01D
:1003A000880F991F6A95E2F7809582238BBB089589
:1003B000413009F05CC02BB381E090E002C0880FAF
:1003C000991F6A95E2F7822B8BBB089541110CC0EF
:1003D00028B381E090E002C0880F991F6A95E2F788
:1003E0008095822388BB0895413009F040C028B32E
:1003F00081E090E002C0880F991F6A95E2F7822B96
:1004000088BB089541110CC025B381E090E002C083
:10041000880F991F6A95E2F78095822385BB08951E
:10042000413029F525B381E090E002C0880F991F83
:100430006A95E2F7822B85BB089541110CC022B367
:1004400081E090E002C0880F991F6A95E2F78095DD
:10045000822382BB0895413051F422B381E090E0C1
:1004600002C0880F991F6A95E2F7822B82BB08951C
:10047000789485B7826085BF8BB780648BBF089501
:1004800083B7856083BF85EF82BF20E030E009C07D
:1004900008B600FEFDCF88B7816088BF2F5F3F4F51
:1004A00012BE24313105A4F313BE0895F894FFCF92
:00000001FF
